:100000000C94D6000C9407010C9407010C94070182
:100010000C9407010C9407010C9407010C94070140
:100020000C9407010C9407010C9407010C94070130
:100030000C9407010C9407010C9407010C94070120
:100040000C9407010C9407010C9407010C94070110
:100050000C9407010C9407010C9407010C94EB031A
:100060000C9407010C945F040C9435040C94070164
:100070000C9407010C9407010C9407010C940701E0
:100080000C9407010C9407010C9407010C940701D0
:100090000C9407010C9407010C9407010C940701C0
:1000A0000C9407010C9407010C9407010C940701B0
:1000B0000C9407010C9407010C9407010C940701A0
:1000C0000C9407010C9407010C9407010C94070190
:1000D0000C9407010C9407010C9407010C94070180
:1000E0000C9407010C9495010C94F3010C94D1012C
:1000F0000C94C2010C947E050C9478020C94E501DA
:100100000C942B02000020002300260029002C0064
:100110002F0032000001000003010601090105055E
:100120000505070508080808020202020A0A08086D
:10013000040404040101010101010101030303039B
:1001400003030303040707070C0C0C0C0C0C0C0C2A
:100150000202020206060606060606060B0B0B0B3B
:100160000B0B0B0B01021020200808102040102060
:10017000408002010201080402010102040810206B
:100180004080804020100804020180040201804069
:1001900020100804020108040201010204081020D2
:1001A000408001020408102040807E0511241FBEFB
:1001B000CFEFD1E2DEBFCDBF00E00CBF16E0A0E084
:1001C000B2E0E8E7F8E100E00BBF02C007900D9253
:1001D000A83DB107D9F728E0A8EDB6E001C01D920F
:1001E000AA3AB207E1F710E0C6EDD0E000E006C0A1
:1001F00021970109802FFE010E94EF09C53DD1071B
:1002000080E00807A9F70E94D4050C943A0C0C94DE
:100210000000FC018385882371F08685978501970E
:1002200019F4A0A1B1A11C92068CF78DE02D1082CB
:1002300090E080E008958FEF9FEF0895FC018385A3
:100240008823F9F0A2A1B3A18C9123E030E044858A
:100250005585B901641B750BAB01440F551F042E66
:1002600001C0220F0A94EAF72095282382E090E04B
:1002700001C0880F4A95EAF7282B2C93822F90E033
:1002800008958FEF9FEF0895FC018385882329F15E
:10029000A2A1B3A18C918C7F8C93A2A1B3A18C91CC
:1002A00082608C9386859785A4A1B5A1892B61F482
:1002B0008C91877F8C9304A0F5A1E02D80818860CC
:1002C000808390E080E008958C91877E8C9304A0D9
:1002D000F5A1E02D80818861F3CF81E090E0089561
:1002E0003FB7F8948091E3069091E406A091E5066B
:1002F000B091E60626B5A89B05C02F3F19F00196E0
:10030000A11DB11D3FBFBA2FA92F982F8827BC016F
:10031000CD01620F711D811D911D42E0660F771F97
:10032000881F991F4A95D1F70895AF92BF92CF9237
:10033000DF92EF92FF920F931F93CF93DF936C01A5
:100340007B018B01040F151FEB015E01AE18BF0886
:10035000C017D10759F06991D601ED91FC91019038
:10036000F081E02DC6011995892B79F7C501DF9140
:10037000CF911F910F91FF90EF90DF90CF90BF90A2
:10038000AF900895FC01538D448D252F30E0842FCC
:1003900090E0821B930B541710F0CF9608950197AD
:1003A0000895FC01918D828D981761F0A28DAE0F9A
:1003B000BF2FB11D5D968C91928D9F5F9F73928F21
:1003C00090E008958FEF9FEF0895FC01918D828D4D
:1003D000981731F0828DE80FF11D858D90E008951A
:1003E0008FEF9FEF0895FC01918D228D892F90E072
:1003F000805C9F4F821B91098F739927089587EE28
:1004000096E00E94F30121E0892B09F420E0822F7D
:100410000895FC01A48DA80FB92FB11DA35ABF4F99
:100420002C91848D90E001968F739927848FA689F3
:10043000B7892C93A089B1898C91837080648C9347
:10044000938D848D981306C00288F389E02D8081F6
:100450008F7D80830895EF92FF920F931F93CF9328
:10046000DF93EC0181E0888F9B8D8C8D98131AC0EF
:10047000E889F989808185FF15C09FB7F894EE89D6
:10048000FF896083E889F989808183708064808333
:100490009FBF81E090E0DF91CF911F910F91FF907E
:1004A000EF900895F62E0B8D10E00F5F1F4F0F7326
:1004B0001127E02E8C8D8E110CC00FB607FCFACFE1
:1004C000E889F989808185FFF5CFCE010E94090274
:1004D000F1CFEB8DEC0FFD2FF11DE35AFF4FF082B2
:1004E0009FB7F8940B8FEA89FB8980818062CFCF18
:1004F000CF93DF93EC01888D8823B9F0AA89BB895B
:10050000E889F9898C9185FD03C0808186FD0DC045
:100510000FB607FCF7CF8C9185FFF2CF808185FF66
:10052000EDCFCE010E940902E9CFDF91CF9108956E
:1005300080E090E0892B29F00E94FF0181110E9448
:10054000000080E090E0892B49F080E090E0892B6A
:1005500029F00E94000081110E94000080E090E0DC
:10056000892B49F080E090E0892B29F00E9400005F
:1005700081110E94000080E090E0892B49F080E02A
:1005800090E0892B29F00E94000081110C9400005A
:100590000895FC018385882369F0868597850197F6
:1005A00019F4A08DB18D7C930688F789E02D6083C6
:1005B000CB01089581E090E00895CF92DF92EF9211
:1005C000FF920F931F93CF93DF93EC018B858823CA
:1005D00009F43FC08B0177FF02C010E000E0053650
:1005E000110514F004E610E0EA8DFB8D208130E067
:1005F0008E859F85019721F4EC8DFD8D8081382BB0
:10060000B90190E080E00E94110B6B017C01B80100
:10061000110F880B990B0E94130B9B01AC01C701B2
:10062000B6010E94C80B20E030E048EC52E40E9482
:10063000690A0E94E20ACE010E94C90290E080E0AD
:10064000DF91CF911F910F91FF90EF90DF90CF90AE
:1006500008958FEF9FEFF4CFCF93DF93EC01CC3968
:100660008FEFD807C4F0C536D10524F5D7FF16C0E3
:1006700070E060E082E098E00E94DD026627772764
:100680006C1B7D0B88ED97E00E94DD0290E080E01E
:10069000DF91CF910895CCE9DFEFEACF70E060E021
:1006A000209709F0BE0182E098E00E94DD0270E030
:1006B00060E0E8CFC4E6D0E0F5CFFC01A289B389C1
:1006C0008C9121E030E0048002C0220F331F0A9495
:1006D000E2F7209528232C93A289B3898C9170E0AE
:1006E000048002C0660F771F0A94E2F7682B6C93B0
:1006F0000895FC0101900020E9F73197AF01481BF4
:10070000590BBC0187EE96E00C9495018F929F9255
:10071000AF92BF920F931F93CF93DF93CDB7DEB706
:10072000A1970FB6F894DEBF0FBECDBF19A242301D
:1007300008F44AE08E010F5D1F4F842E912CB12CDE
:10074000A12CA50194010E94BE09E62FB901CA019E
:10075000EA30F4F4E05DD801EE938D01232B242BD5
:10076000252B79F790E080E0109719F0CD010E94D9
:100770007903A1960FB6F894DEBF0FBECDBFDF910F
:10078000CF911F910F91BF90AF909F908F90089540
:10079000E95CE1CFCF92DF92EF92FF92CF93DF93AC
:1007A0006B017C016DE287EE96E00E942B02EC016A
:1007B00066277727CB016C197D098E099F094AE0CE
:1007C0000E9486038C0F9D1FDF91CF91FF90EF90C9
:1007D000DF90CF9008951F920F920FB60F921124C1
:1007E0002F933F938F939F93AF93BF938091DF0697
:1007F0009091E006A091E106B091E2063091DE060C
:1008000023E0230F2D3758F50196A11DB11D20932C
:10081000DE068093DF069093E006A093E106B09396
:10082000E2068091E3069091E406A091E506B0917E
:10083000E6060196A11DB11D8093E3069093E406A0
:10084000A093E506B093E606BF91AF919F918F917B
:100850003F912F910F900FBE0F901F90189526E893
:10086000230F0296A11DB11DD2CF1F920F920FB67A
:100870000F9211240BB60F922F933F934F935F93D8
:100880006F937F938F939F93AF93BF93EF93FF9358
:1008900087EE96E00E940902FF91EF91BF91AF9120
:1008A0009F918F917F916F915F914F913F912F9188
:1008B0000F900BBE0F900FBE0F901F9018951F92B8
:1008C0000F920FB60F9211240BB60F922F938F93A6
:1008D0009F93EF93FF93E091F706F091F8068081E4
:1008E000E091FD06F091FE0682FD1DC09081809191
:1008F00000078F5F8F7320910107821741F0E0910D
:100900000007F0E0E951F94F958F80930007FF91C0
:10091000EF919F918F912F910F900BBE0F900FBE73
:100920000F901F9018958081F2CFCF92DF92EF92B7
:10093000FF920F931F93E82FF92F05C00150110963
:100940002109310961F1908196239417B9F305C00B
:10095000015011092109310911F190819623941355
:10096000F7CFC12CD12CE12CF12C0AC08FEFC81A83
:10097000D80AE80AF80A0C151D052E053F0579F07E
:1009800080818623841791F36C2D7D2D8E2D9F2DD4
:100990001F910F91FF90EF90DF90CF90089560E04E
:1009A00070E080E090E01F910F91FF90EF90DF905A
:1009B000CF9008950F931F93FC017183608313867A
:1009C00081E08287DB0183E0AA0FBB1F8A95E1F7F4
:1009D000A050BE4F14962D913C91159716968D916F
:1009E0009C91179712964D915C9153834283358366
:1009F0002483938B828B9C0121503109318B208B76
:100A00000297958B848BA0E3B4E090E080E014968D
:100A10002D913C9115972617370709F066C021E004
:100A2000238728E2289FD001299FB00D1124A05DC3
:100A3000BB4F2D913C9111973783268316962D91AC
:100A40003C9117973587248712962D913C911397E7
:100A50003787268758960D911D912D913C915B9774
:100A6000178B068B5C964D915D916D917C915F9794
:100A7000518F408F4115510541F002501109138FDC
:100A8000028F42505109558F448F28E2289FD00190
:100A9000299FB00D1124A05DBB4F50968D919C9164
:100AA0005197978F868F54968D919C91559791A3CE
:100AB00080A318968D919C91199793A382A31C965D
:100AC0008D919C911D9795A384A390968D919C9157
:100AD000919797A386A394968D919C9191A780A7B7
:100AE000CF011F910F910C940901019698968F30B8
:100AF000910509F08CCF1F910F910895E7EEF6E074
:100B00001382128288EE93E0A0E0B0E084839583A4
:100B1000A683B7838CE896E09183808385EC90E090
:100B20009587848784EC90E09787868780EC90E0B7
:100B3000918B808B81EC90E0938B828B82EC90E0A8
:100B4000958B848B86EC90E0978B868B118E128E22
:100B5000138E148E62E070E080E898E00E94DA0460
:100B600063E070E086E598E00E94DA0464E070E0FB
:100B70008CE298E00E94DA0465E070E082E098E0A0
:100B80000E94DA0466E070E088ED97E00E94DA04E3
:100B90006BE070E08EEA97E00E94DA046CE070E0AF
:100BA00084E897E00C94DA04789484B5826084BD7C
:100BB00084B5816084BD85B5826085BD85B5816061
:100BC00085BD80916E00816080936E0010928100DF
:100BD000809181008260809381008091810081609A
:100BE000809381008091800081608093800080915B
:100BF000B10084608093B1008091B00081608093E7
:100C0000B00080919100826080939100809191006A
:100C1000816080939100809190008160809390002A
:100C20008091A10082608093A1008091A1008160E9
:100C30008093A1008091A00081608093A0008091AA
:100C40002101826080932101809121018160809344
:100C500021018091200181608093200180917A00A0
:100C6000846080937A0080917A00826080937A0019
:100C700080917A00816080937A0080917A00806808
:100C800080937A001092C1001092D9061092D80673
:100C9000E091F706F091F80682E08083E091F30698
:100CA000F091F4061082E091F506F091F6068FECD3
:100CB00080831092FF06E091FB06F091FC0686E02F
:100CC0008083E091F906F091FA068081806180834B
:100CD000E091F906F091FA06808188608083E091C6
:100CE000F906F091FA06808180688083E091F90628
:100CF000F091FA0680818F7D808381E090E090936F
:100D0000890880938808E0919008F09191082081EB
:100D1000AC010090840802C0440F551F0A94E2F70A
:100D2000242B208390935F0880935E08E0916608EF
:100D3000F09167082081AC0100905A0802C0440F6E
:100D4000551F0A94E2F7242B208390933508809353
:100D50003408E0913C08F0913D0820810090300873
:100D600002C0880F991F0A94E2F7822B808360E00B
:100D700080E898E00E945D0360E086E598E00E94CC
:100D80005D0360E08CE298E00E945D0388ED97E0EF
:100D90000E941E018091E307882341F0E091FC0747
:100DA000F091FD078081887F8160808388ED97E0E6
:100DB0000E9444018091E307882391F08091E60727
:100DC0009091E707019731F4E091F407F091F5076E
:100DD0008DE38083E091F207F091F30784E4808350
:100DE00070E060E088ED97E00E94C90288ED97E02E
:100DF0000E94090181E090E09093E1078093E00771
:100E0000E091E807F091E90720810090DC0702C03B
:100E1000880F991F0A94E2F7822B808382E098E082
:100E20000E941E0180910D08882341F0E091260860
:100E3000F09127088081887F8160808382E098E03C
:100E40000E94440180910D08882391F08091100840
:100E500090911108019731F4E0911E08F0911F085C
:100E60008DE38083E0911C08F0911D0884E4808369
:100E700070E060E082E098E00E94C90282E098E0C1
:100E80000E940901C1E0D0E0D0930B08C0930A088A
:100E9000E0911208F091130880819E0100900608ED
:100EA00002C0220F331F0A94E2F7822B8083D09373
:100EB000B707C093B607E091BE07F091BF078081E6
:100EC0009E010090B20702C0220F331F0A94E2F77E
:100ED000822B808360E08EEA97E00E945D0382E0CF
:100EE00090E090938D0780938C07E0919407F091A8
:100EF000950780810090880702C0CC0FDD1F0A94FF
:100F0000E2F7C095C823C08390E080E00E942C03E4
:100F100023E0222E312CC4E0D0E034E1832E912C4A
:100F2000A12CB12C60E08EEA97E00E945D038FE077
:100F300090E00197F1F761E08EEA97E00E945D038F
:100F400083E290E00197F1F760E08EEA97E00E947B
:100F50005D03E0E7F1E06491EAE2F1E08491E82FDB
:100F6000F0E0EE0FFF1FEC5FFE4F8591949100E4DF
:100F700012E42FE030E0462F0E94950461157105C0
:100F80008105910529F06F5F7F4F8F4F9F4F9F70B5
:100F90000E94110B20E030E040E05FE30E94C80BAC
:100FA0002DEC3CEC48EE51E40E94690A6093DA06AD
:100FB0007093DB068093DC069093DD068AE996E069
:100FC0000E947903C090DA06D090DB06E090DC0640
:100FD000F090DD06A7019601C701B6010E94350C0D
:100FE000882309F4B5C085EA96E00E94790381EB75
:100FF00096E00E94790385EB96E00E947903C09009
:10100000DA06D090DB06E090DC06F090DD0620E00A
:1010100030E040EF51E4C701B6010E94C30B18163F
:101020000CF028C1D093D906C093D80688EB96E07F
:101030000E9479036091D8067091D906072E000CA2
:10104000880B990B97FF3DC10E94CA0385EB96E080
:101050000E9479038091D8069091D906823091053B
:1010600009F44BC108F031C1019709F44DC1C0909A
:10107000DA06D090DB06E090DC06F090DD0620E09A
:1010800030E040E251E4C701B6010E94640A10E07A
:1010900000E087FD1DC0C701B6010E94DB0A9B016D
:1010A000AC012A50310941095109A7E3B0E00E947F
:1010B000B309A50194010E94940989019A01035D75
:1010C0001F4F2F4F3F4F0536110514F004E610E077
:1010D000C8010E942C0380EC96E00E947903B801BD
:1010E000012E000C880B990B17FF1AC10E94CA032E
:1010F00086ED96E00E94790385EB96E00E947903E5
:101100000E9470012B013C0184EFC82EDD24D39492
:10111000E12CF12C0E947001641975098609970968
:10112000683E734081059105A8F3F1E0CF1AD1081C
:10113000E108F10828EE420E23E0521E611C711CEA
:10114000C114D104E104F10429F70E949802EACE07
:1011500026013701E89477F82FEF3FEF4FE75FE77D
:10116000C301B2010E94350C81110DC02FEF3FEF7A
:101170004FE75FE7C301B2010E94640A18161CF42E
:1011800089EA96E032CF2FEF3FEF4FE75FE4C701E8
:10119000B6010E94C30B18161CF48DEA96E025CF09
:1011A0002FEF3FEF4FE75FECC701B6010E94640AE3
:1011B00087FDF3CF20E030E0A901C701B6010E940E
:1011C000640A87FF09C06DE287EE96E00E942B0259
:1011D000F7FAF094F7F8F0942AE037ED43EA5BE38E
:1011E000C701B6010E94F8092B013C010E94E20AE6
:1011F0006B017C010E94110B9B01AC01C301B20188
:101200000E94F7092B013C014AE0C701B6010E9488
:1012100086036EE287EE96E00E942B0220E030E02B
:1012200040E251E4C301B2010E94C80B2B013C0112
:101230000E94E20A6B01F12CE12C4AE0C701B601E1
:101240000E948603C701B6010E94110B9B01AC01ED
:10125000C301B2010E94F70920E030E040E251E40E
:101260000E94C80B0E94E20A90E080E04AE00E94DF
:101270008603BDCE20E030E040EA51E4C701B6016C
:101280000E94C30B18162CF43092D9062092D8066F
:10129000CDCE20E030E040E251E4C701B6010E942B
:1012A000C30B18163CF482E090E09093D90680932B
:1012B000D806BCCEE1E0F0E0F093D906E093D80682
:1012C000B5CE4AE00E948603C1CE8330910599F0E5
:1012D00060E0049709F0CBCE80E898E00E945D03BF
:1012E00060E086E598E00E945D0360E08CE298E0B3
:1012F0000E945D03BCCE61E0EFCF61E080E898E042
:101300000E945D0361E0EDCF61E080E898E00E941B
:101310005D0361E086E598E00E945D0361E0E6CF51
:101320004AE00E948603E4CE052E97FB1EF400944B
:101330000E94AB0957FD07D00E94BE0907FC03D0ED
:101340004EF40C94AB0950954095309521953F4F44
:101350004F4F5F4F089590958095709561957F4FA1
:101360008F4F9F4F08950E94E009A59F900DB49F55
:10137000900DA49F800D911D11240895A1E21A2EB5
:10138000AA1BBB1BFD010DC0AA1FBB1FEE1FFF1F29
:10139000A217B307E407F50720F0A21BB30BE40B79
:1013A000F50B661F771F881F991F1A9469F76095C0
:1013B0007095809590959B01AC01BD01CF0108957A
:1013C000A29FB001B39FC001A39F700D811D112486
:1013D000911DB29F700D811D1124911D0895EE0F76
:1013E000FF1F881F8BBF0790F691E02D199450586E
:1013F000BB27AA270E940F0A0C94890B0E947B0B23
:1014000038F00E94820B20F039F49F3F19F426F443
:101410000C94780B0EF4E095E7FB0C94720BE92F1B
:101420000E949A0B58F3BA1762077307840795074F
:1014300020F079F4A6F50C94BC0B0EF4E0950B2E7D
:10144000BA2FA02D0B01B90190010C01CA01A00116
:101450001124FF27591B99F0593F50F4503E68F171
:101460001A16F040A22F232F342F4427585FF3CFB2
:10147000469537952795A795F0405395C9F77EF483
:101480001F16BA0B620B730B840BBAF09150A1F0CC
:10149000FF0FBB1F661F771F881FC2F70EC0BA0F52
:1014A000621F731F841F48F4879577956795B795DA
:1014B000F7959E3F08F0B0CF9395880F08F09927D5
:1014C000EE0F9795879508950E944E0B08F481E0E2
:1014D00008950E947D0A0C94890B0E94820B58F09B
:1014E0000E947B0B40F029F45F3F29F00C94720BB3
:1014F00051110C94BD0B0C94780B0E949A0B68F35D
:101500009923B1F3552391F3951B550BBB27AA27BC
:1015100062177307840738F09F5F5F4F220F331FF6
:10152000441FAA1FA9F335D00E2E3AF0E0E832D0BE
:1015300091505040E695001CCAF72BD0FE2F29D0C1
:10154000660F771F881FBB1F261737074807AB0793
:10155000B0E809F0BB0B802DBF01FF2793585F4F08
:101560003AF09E3F510578F00C94720B0C94BD0B31
:101570005F3FE4F3983ED4F3869577956795B795EA
:10158000F7959F5FC9F7880F911D9695879597F9F5
:101590000895E1E0660F771F881FBB1F621773076E
:1015A0008407BA0720F0621B730B840BBA0BEE1F83
:1015B00088F7E09508950E94E20A6894B1110C94AE
:1015C000BD0B08950E94A20B88F09F5798F0B92F89
:1015D0009927B751B0F0E1F0660F771F881F991F68
:1015E0001AF0BA95C9F714C0B13091F00E94BC0B43
:1015F000B1E008950C94BC0B672F782F8827B85F53
:1016000039F0B93FCCF3869577956795B395D9F7BF
:101610003EF490958095709561957F4F8F4F9F4FC9
:101620000895E89409C097FB3EF4909580957095D5
:1016300061957F4F8F4F9F4F9923A9F0F92F96E91E
:10164000BB279395F695879577956795B795F11193
:10165000F8CFFAF4BB0F11F460FF1BC06F5F7F4F30
:101660008F4F9F4F16C0882311F096E911C0772342
:1016700021F09EE8872F762F05C0662371F096E84B
:10168000862F70E060E02AF09A95660F771F881F1A
:10169000DAF7880F9695879597F90895990F0008BE
:1016A000550FAA0BE0E8FEEF16161706E807F90734
:1016B000C0F012161306E407F50798F0621B730BCF
:1016C000840B950B39F40A2661F0232B242B252B50
:1016D00021F408950A2609F4A140A6958FEF811DF3
:1016E000811D089597F99F6780E870E060E0089594
:1016F0009FEF80EC089500240A941616170618062A
:101700000906089500240A94121613061406050605
:101710000895092E0394000C11F4882352F0BB0F96
:1017200040F4BF2B11F460FF04C06F5F7F4F8F4FF9
:101730009F4F089557FD9058440F551F59F05F3F34
:1017400071F04795880F97FB991F61F09F3F79F0E3
:1017500087950895121613061406551FF2CF469565
:10176000F1DF08C0161617061806991FF1CF8695E7
:101770007105610508940895E894BB2766277727CB
:10178000CB0197F908950E944E0B08F48FEF08954E
:101790000E94DB0B0C94890B0E947B0B38F00E949B
:1017A000820B20F0952311F00C94720B0C94780BA3
:1017B00011240C94BD0B0E949A0B70F3959FC1F3FA
:1017C000950F50E0551F629FF001729FBB27F00DEF
:1017D000B11D639FAA27F00DB11DAA1F649F662744
:1017E000B00DA11D661F829F2227B00DA11D621F93
:1017F000739FB00DA11D621F839FA00D611D221F4D
:10180000749F3327A00D611D231F849F600D211D30
:10181000822F762F6A2F11249F5750409AF0F1F0B3
:1018200088234AF0EE0FFF1FBB1F661F771F881F1C
:1018300091505040A9F79E3F510580F00C94720BD7
:101840000C94BD0B5F3FE4F3983ED4F386957795F7
:101850006795B795F795E7959F5FC1F7FE2B880FC2
:10186000911D9695879597F908950E944E0B880BC8
:08187000990B0895F894FFCFD5
:101878000000040000002E000100040001002E00FA
:101888000200040004002E000300040005002E00DE
:1018980004000600050034000500040003002E00C3
:1018A8000600070003000201070007000400020108
:1018B80008000700050002010900070006000201F0
:1018C8000A000100040025000B00010005002500A6
:1018D8000C000100060025000D000100070025008E
:1018E8000E000800010005010F00080000000501B6
:1018F80010000700010002011100070000000201AA
:101908001200030003002B001300030002002B0049
:101918001400030001002B001500030000002B0039
:10192800160000000000220017000000010022003D
:101938001800000002002200190000000300220025
:101948001A000000040022001B000000050022000D
:101958001C000000060022001D00000007002200F5
:101968001E000200070028001F00020006002800D1
:1019780020000200050028002100020004002800C1
:1019880022000200030028002300020002002800B1
:1019980024000200010028002500020000002800A1
:1019A8002600030007002B00270006000200340071
:1019B8002800060001003400290006000000340059
:1019C8002A000A0007000B012B000A0006000B0181
:1019D8002C000A0005000B012D000A0004000B0171
:1019E8002E000A0003000B012F000A0002000B0161
:1019F80030000A0001000B0131000A0000000B0151
:101A08003200010003002500330001000200250018
:101A18003400010001002500350001000000250008
:101A280036000500000031003700050001003100D4
:101A380038000500020031003900050003003100BC
:101A48003A000500040031003B00050005003100A4
:101A58003C000500060031003D000500070031008C
:101A68003E000900000008013F00090001000801CC
:101A780040000900020008014100090003000801B4
:101A8800420009000400080143000900050008019C
:101A98004400090006000801450009000700080184
:101AA800000000000D000000440000004500000098
:101AB8004600000000000000470000000000000091
:101AC8006E00000035000000000000000400010066
:101AD800440000004500000046000000000000002F
:101AE80048000000000000006E0000003500000003
:101AF800010001000B0000008000000081000000D0
:101B080084000000850000008800000089000000B3
:101B18006F00000036000000010001000C00010009
:101B280080000000810000008400000085000000A3
:101B38008A0000008B0000006F00000036000000E3
:101B4800020000000A000000B0000000B100000020
:101B5800B200000000000000B30000000000000018
:101B680070000000370000000200000009000100BA
:101B7800B0000000B1000000B2000000000000004A
:101B8800B4000000000000007000000037000000F2
:101B98000300010005000000900000009100000013
:101BA80094000000950000009800000099000000D3
:101BB800710000003800000003000100020001006D
:101BC80090000000910000009400000095000000C3
:101BD8009A0000009B00000071000000380000001F
:101BE80003000100030002009000000091000000C3
:101BF80094000000950000009C0000009D0000007B
:101C08007100000038000000040001000600000018
:101C1800A0000000A1000000A4000000A500000032
:101C2800A8000000A90000007200000039000000B0
:101C38000400010007000100A0000000A10000004E
:101C4800A4000000A5000000AA000000AB000000EE
:101C580072000000390000000400010008000200C2
:101C6800A0000000A1000000A4000000A5000000E2
:101C7800AC000000AD000000720000003900000058
:101C8800050001002C0000002001000021010000D7
:101C9800240100002501000028010000290100009E
:101CA800730000003A000000050001002D0001004B
:101CB800200100002101000024010000250100008E
:101CC8002A0100002B010000730000003A00000008
:101CD800050001002E000200200100002101000083
:101CE80024010000250100002C0100002D01000046
:101CF800730000003A000000000000002B0295016C
:101D0800C2017802F301D101E50144697374616E7F
:101D180063653A20006E616E00696E66006F7666D4
:101D28000020636D000D0A0053746174653A200049
:101D380053657474696E67206D6F746F7220737069
:081D48006565643A20002500E6
:00000001FF
