:100000000C9483000C94B4000C94B4000C94B400D1
:100010000C94B4000C94B4000C94B4000C94B40090
:100020000C94B4000C94B4000C94B4000C94B40080
:100030000C94B4000C94B4000C94B4000C94B40070
:100040000C94B4000C94B4000C94B4000C94B40060
:100050000C94B4000C94B4000C94B4000C94CF0233
:100060000C94B4000C9443030C9419030C94B40046
:100070000C94B4000C94B4000C94B4000C94B40030
:100080000C94B4000C94B4000C94B4000C94B40020
:100090000C94B4000C94B4000C94B4000C94B40010
:1000A0000C94B4000C94B4000C94B4000C94B40000
:1000B0000C94B4000C94B4000C94B4000C94B400F0
:1000C0000C94B4000C94B4000C94B4000C94B400E0
:1000D0000C94B4000C94B4000C94B4000C94B400D0
:1000E0000C94B4000C940D010C945D010C9430023E
:1000F0000C9479030C94AB010C9449010C943A01D3
:100100000C94E301790311241FBECFEFD1E2DEBFCF
:10011000CDBF00E00CBF27E0AEE9B6E001C01D9204
:10012000AF37B207E1F716E0A0E0B2E0ECEEF1E1A4
:1001300000E00BBF02C007900D92AE39B107D9F7AE
:1001400010E0C3E8D0E000E006C021970109802F4D
:10015000FE010E944B08C238D10780E00807A9F7CA
:100160000E949E040C94F4080C9400003FB7F8948D
:100170008091A1069091A206A091A306B091A40639
:1001800026B5A89B05C02F3F19F00196A11DB11DF2
:100190003FBFBA2FA92F982F8827BC01CD01620F2E
:1001A000711D811D911D42E0660F771F881F991FE9
:1001B0004A95D1F708958F929F92AF92BF92CF92B6
:1001C000DF92EF92FF924B015C010E94B6006B013F
:1001D0007C010E94B6006C197D098E099F09683E5A
:1001E000734081059105A8F321E0821A9108A108C6
:1001F000B10888EEC80E83E0D81EE11CF11C811402
:100200009104A104B10429F7FF90EF90DF90CF9003
:10021000BF90AF909F908F900895AF92BF92CF9272
:10022000DF92EF92FF920F931F93CF93DF936C01B6
:100230007B018B01040F151FEB015E01AE18BF0897
:10024000C017D10759F06991D601ED91FC91019049
:10025000F081E02DC6011995892B79F7C501DF9151
:10026000CF911F910F91FF90EF90DF90CF90BF90B3
:10027000AF900895FC01538D448D252F30E0842FDD
:1002800090E0821B930B541710F0CF9608950197BE
:100290000895FC01918D828D981761F0A28DAE0FAB
:1002A000BF2FB11D5D968C91928D9F5F9F73928F32
:1002B00090E008958FEF9FEF0895FC01918D828D5E
:1002C000981731F0828DE80FF11D858D90E008952B
:1002D0008FEF9FEF08952FB7F8948091A506909126
:1002E000A606A091A706B091A8062FBF8093B106DD
:1002F0009093B206A093B306B093B40689EA96E051
:100300000E945D0197FF26C02FB7F8948091A50643
:100310009091A606A091A706B091A8062FBF409184
:10032000B1065091B2066091B3067091B406841B79
:10033000950BA60BB70B4091AD065091AE066091A0
:10034000AF067091B00684179507A607B707B0F2FD
:100350008FEF9FEF0895FC01918D228D892F90E002
:10036000805C9F4F821B91098F739927089589EABA
:1003700096E00E94AB0121E0892B09F420E0822F56
:100380000895FC01A48DA80FB92FB11DA35ABF4F2A
:100390002C91848D90E001968F739927848FA68984
:1003A000B7892C93A089B1898C91837080648C93D8
:1003B000938D848D981306C00288F389E02D808187
:1003C0008F7D80830895EF92FF920F931F93CF93B9
:1003D000DF93EC0181E0888F9B8D8C8D98131AC080
:1003E000E889F989808185FF15C09FB7F894EE8967
:1003F000FF896083E889F9898081837080648083C4
:100400009FBF81E090E0DF91CF911F910F91FF900E
:10041000EF900895F62E0B8D10E00F5F1F4F0F73B6
:100420001127E02E8C8D8E110CC00FB607FCFACF71
:10043000E889F989808185FFF5CFCE010E94C1014D
:10044000F1CFEB8DEC0FFD2FF11DE35AFF4FF08242
:100450009FB7F8940B8FEA89FB8980818062CFCFA8
:10046000CF93DF93EC01888D8823B9F0AA89BB89EB
:10047000E889F9898C9185FD03C0808186FD0DC0D6
:100480000FB607FCF7CF8C9185FFF2CF808185FFF7
:10049000EDCFCE010E94C101E9CFDF91CF91089548
:1004A00080E090E0892B29F00E94B70181110E9421
:1004B000000080E090E0892B49F080E090E0892BFB
:1004C00029F00E94000081110E94000080E090E06D
:1004D000892B49F080E090E0892B29F00E940000F0
:1004E00081110E94000080E090E0892B49F080E0BB
:1004F00090E0892B29F00E94000081110C940000EB
:1005000008958F929F92AF92BF920F931F93CF93B4
:10051000DF93CDB7DEB7A1970FB6F894DEBF0FBE5D
:10052000CDBF19A2423008F44AE08E010F5D1F4F83
:10053000842E912CB12CA12CA50194010E94290894
:10054000E62FB901CA01EA3044F5E05DD801EE9327
:100550008D01232B242B252B79F790E080E0109739
:1005600069F0FD0101900020E9F73197AF014A1BC6
:100570005B0BBD0189EA96E00E940D01A1960FB6C2
:10058000F894DEBF0FBECDBFDF91CF911F910F91C9
:10059000BF90AF909F908F900895E95CD7CF1F9246
:1005A0000F920FB60F9211242F933F938F939F9327
:1005B000AF93BF938091A5069091A606A091A70640
:1005C000B091A8063091A00623E0230F2D3758F5EF
:1005D0000196A11DB11D2093A0068093A5069093BE
:1005E000A606A093A706B093A8068091A1069091B5
:1005F000A206A091A306B091A4060196A11DB11D6B
:100600008093A1069093A206A093A306B093A4069C
:10061000BF91AF919F918F913F912F910F900FBEFE
:100620000F901F90189526E8230F0296A11DB11D6B
:10063000D2CF1F920F920FB60F9211240BB60F92CA
:100640002F933F934F935F936F937F938F939F93DA
:10065000AF93BF93EF93FF9389EA96E00E94C101A5
:10066000FF91EF91BF91AF919F918F917F916F918A
:100670005F914F913F912F910F900BBE0F900FBE46
:100680000F901F9018951F920F920FB60F92112482
:100690000BB60F922F938F939F93EF93FF93E0915D
:1006A000B906F091BA068081E091BF06F091C006CC
:1006B00082FD1DC090818091C2068F5F8F73209153
:1006C000C306821741F0E091C206F0E0E755F94F0A
:1006D000958F8093C206FF91EF919F918F912F91FB
:1006E0000F900BBE0F900FBE0F901F90189580813A
:1006F000F2CFCF92DF92EF92FF921092AC0610925F
:10070000AB0688EE93E0A0E0B0E08093AD06909356
:10071000AE06A093AF06B093B00684E394E0909346
:10072000AA068093A90685EC90E09093B606809384
:10073000B50684EC90E09093B8068093B70680EC01
:1007400090E09093BA068093B90681EC90E0909384
:10075000BC068093BB0682EC90E09093BE0680932B
:10076000BD0686EC90E09093C0068093BF06109281
:10077000C2061092C3061092C4061092C5061092CB
:1007800071071092700781E08093740710927307CD
:100790001092720728E730E030937C0720937B07A4
:1007A00029E730E030937E0720937D072AE730E089
:1007B00030937807209377072BE730E030937A0760
:1007C000209379072CE730E0309376072093750764
:1007D00025E030E0309347072093460710925107F9
:1007E0008093500720912C0230912D0280912E028F
:1007F00090912F0240912A0250912B025093490769
:100800004093480730934B0720934A07909359072A
:10081000809358079C01215031093093570720934A
:100820005607029790935B0780935A07E2E4F4E03F
:1008300090E080E0248135812530310509F077C0D2
:1008400021E02093510728E2289FF001299FF00D15
:100850001124EE5BFB4F2081318130934D072093B3
:100860004C0726813781309353072093520722810A
:1008700033813093550720935407C08CD18CE28C80
:10088000F38CD0925D07C0925C07448D558D668DC8
:10089000778D50935F0740935E074115510569F0CE
:1008A000E2E0CE1AD108D0926107C09260074250B0
:1008B0005109509363074093620748E2489FF00153
:1008C000499FF00D1124EE5BFB4F80899189909335
:1008D000650780936407A489B589B0936707A093DF
:1008E0006607808591859093690780936807848562
:1008F000958590936B0780936A0780A191A190934F
:100900006D0780936C0784A195A190936F078093E6
:100910006E072130310509F41C92E0916407F091D3
:1009200065071082FF90EF90DF90CF9008950196B9
:10093000B8968F30910509F07DCFF4CF789484B5C7
:10094000826084BD84B5816084BD85B5826085BDCB
:1009500085B5816085BD80916E00816080936E0059
:10096000109281008091810082608093810080914B
:1009700081008160809381008091800081608093FC
:1009800080008091B10084608093B1008091B000BC
:1009900081608093B000809191008260809391008B
:1009A000809191008160809391008091900081609E
:1009B000809390008091A10082608093A10080913B
:1009C000A10081608093A1008091A000816080934C
:1009D000A0008091210182608093210180912101FA
:1009E00081608093210180912001816080932001AA
:1009F00080917A00846080937A0080917A0082608E
:100A000080937A0080917A00816080937A0080914F
:100A10007A00806880937A001092C100E091B90654
:100A2000F091BA0682E08083E091B506F091B606B7
:100A30001082E091B706F091B8068FEC8083109297
:100A4000C106E091BD06F091BE0686E08083E0918C
:100A5000BB06F091BC06808180618083E091BB067B
:100A6000F091BC06808188608083E091BB06F091A4
:100A7000BC06808180688083E091BB06F091BC0653
:100A800080818F7D808380917407882371F0E0914D
:100A90007507F091760780818F738083E0917507E9
:100AA000F091760780818064808380917407882329
:100AB00069F0E0917707F09178078081887F8083E3
:100AC000E0917707F09178078081808380915107CA
:100AD000882301F1E0916807F0916907408183E084
:100AE00090E02091520730915307BC01621B730BB9
:100AF0009B01220F331F022E01C0880F0A94EAF7D0
:100B00008095842342E050E001C0440F2A95EAF723
:100B1000842B808380915107882341F0E0916A07FC
:100B2000F0916B078081887F81608083809151077D
:100B3000882319F1E0916807F091690780818C7F23
:100B40008083E0916807F0916907808182608083EB
:100B50008091540790915507E0916A07F0916B07D7
:100B6000892B09F076C08081877F8083E0916A07B6
:100B7000F0916B0780818860808380915107882382
:100B800091F08091540790915507019731F4E091CD
:100B90006207F09163078DE38083E0916007F09135
:100BA000610784E4808380915107882381F08091DC
:100BB000540790915507019729F4E0915E07F09151
:100BC0005F071082E0915C07F0915D0710828091D1
:100BD0005107882381F08091540790915507019720
:100BE00029F4E0916607F09167071082E0916407AD
:100BF000F0916507108281E090E090934F07809319
:100C00004E07E0915607F0915707208100904A0760
:100C100002C0880F991F0A94E2F7822B80831092FA
:100C20009F0610929E0689EA96E00E94AB01892BEE
:100C300009F406C10E946B0197FD23C08D32910516
:100C400091F0C0970A9778F089EA96E00E944901EE
:100C5000F1CF8081877E8083E0916A07F0916B07F6
:100C60008081886189CF89EA96E00E9449010E94CB
:100C70006B019C01205331092A303105A0F3019703
:100C800091F390919E0680919F0620915107222317
:100C900009F446C0C92FD82FD7FF02C0D0E0C0E06A
:100CA000C536D10514F0C4E6D0E0E0916007F091BC
:100CB0006107608170E0E0905407F090550781E093
:100CC000E816F10431F4E0916207F0916307808146
:100CD000782B90E080E00E942E074B015C01BE0162
:100CE000DD0F880B990B0E9430079B01AC01C501F9
:100CF000B4010E946B0720E030E048EC52E40E940F
:100D000053080E94C508EA94EF2829F4E0915E0791
:100D1000F0915F077083E0915C07F0915D0760835D
:100D200064EF71E080E090E00E94DB008091740746
:100D300061E070E0882309F457C0E0917507F091F5
:100D400076078081807E8083E0917907F0917A0731
:100D50008081877F80832091700730917107922F67
:100D6000977080E2283031050CF480E0E09175073F
:100D7000F09176072081890F922B9083E09179077B
:100D8000F0917A079081869586958870892B80836B
:100D900080917407882339F0E0917707F091780704
:100DA00080818068808380917407882339F0E09186
:100DB0007707F0917807808180648083E0917707DE
:100DC000F0917807808186FDFDCF8091740770E0F7
:100DD00060E0882329F060917800C09079007C2D34
:100DE00070937307609372076B01770FEE08FF082B
:100DF0004AE0C701B601F7FE0DC06DE289EA96E050
:100E00000E94E30166277727CB016C197D098E09C3
:100E10009F094AE00E94810242E050E06AE976E0E0
:100E200089EA96E00E940D0180919E0690919F06AE
:100E30000196853691056CF490939F0680939E06EB
:100E400061E070E080E090E00E94DB000E945002D0
:100E5000EACE10929F0610929E06F2CFE89409C047
:100E600097FB3EF490958095709561957F4F8F4FDD
:100E70009F4F9923A9F0F92F96E9BB279395F695F3
:100E8000879577956795B795F111F8CFFAF4BB0F71
:100E900011F460FF1BC06F5F7F4F8F4F9F4F16C0D5
:100EA000882311F096E911C0772321F09EE8872F5F
:100EB000762F05C0662371F096E8862F70E060E01B
:100EC0002AF09A95660F771F881FDAF7880F969594
:100ED000879597F908950E947E070C94EF070E946A
:100EE000E10738F00E94E80720F0952311F00C94F8
:100EF000D8070C94DE0711240C9423080E940008E4
:100F000070F3959FC1F3950F50E0551F629FF0015C
:100F1000729FBB27F00DB11D639FAA27F00DB11D75
:100F2000AA1F649F6627B00DA11D661F829F2227FE
:100F3000B00DA11D621F739FB00DA11D621F839F85
:100F4000A00D611D221F749F3327A00D611D231F5B
:100F5000849F600D211D822F762F6A2F11249F57A9
:100F600050409AF0F1F088234AF0EE0FFF1FBB1FAC
:100F7000661F771F881F91505040A9F79E3F51056B
:100F800080F00C94D8070C9423085F3FE4F3983E5C
:100F9000D4F3869577956795B795F795E7959F5F15
:100FA000C1F7FE2B880F911D9695879597F90895A7
:100FB00097F99F6780E870E060E008959FEF80EC0C
:100FC000089500240A9416161706180609060895AF
:100FD00000240A9412161306140605060895092E15
:100FE0000394000C11F4882352F0BB0F40F4BF2B84
:100FF00011F460FF04C06F5F7F4F8F4F9F4F0895C4
:1010000057FD9058440F551F59F05F3F71F04795B9
:10101000880F97FB991F61F09F3F79F0879508959E
:10102000121613061406551FF2CF4695F1DF08C0BD
:10103000161617061806991FF1CF869571056105DA
:1010400008940895E894BB2766277727CB0197F982
:101050000895A1E21A2EAA1BBB1BFD010DC0AA1FF9
:10106000BB1FEE1FFF1FA217B307E407F50720F011
:10107000A21BB30BE40BF50B661F771F881F991F8C
:101080001A9469F760957095809590959B01AC01D5
:10109000BD01CF010895EE0FFF1F881F8BBF079082
:1010A000F691E02D19940E9467080C94EF070E94B6
:1010B000E80758F00E94E10740F029F45F3F29F06B
:1010C0000C94D80751110C9423080C94DE070E944D
:1010D000000868F39923B1F3552391F3951B550B41
:1010E000BB27AA2762177307840738F09F5F5F4FFB
:1010F000220F331F441FAA1FA9F335D00E2E3AF03A
:10110000E0E832D091505040E695001CCAF72BD051
:10111000FE2F29D0660F771F881FBB1F26173707A2
:101120004807AB07B0E809F0BB0B802DBF01FF27D4
:1011300093585F4F3AF09E3F510578F00C94D807D2
:101140000C9423085F3FE4F3983ED4F3869577959B
:101150006795B795F7959F5FC9F7880F911D96958D
:10116000879597F90895E1E0660F771F881FBB1FE9
:10117000621773078407BA0720F0621B730B840B96
:10118000BA0BEE1F88F7E09508950E94080888F0D2
:101190009F5798F0B92F9927B751B0F0E1F0660F3B
:1011A000771F881F991F1AF0BA95C9F714C0B1307C
:1011B00091F00E942208B1E008950C942208672F54
:1011C000782F8827B85F39F0B93FCCF386957795AB
:1011D0006795B395D9F73EF4909580957095619594
:0C11E0007F4F8F4F9F4F0895F894FFCF72
:1011EC000000040000002E000100040001002E008D
:1011FC000200040004002E000300040005002E0071
:10120C0004000600050034000500040003002E0055
:10121C00060007000300020107000700040002019A
:10122C000800070005000201090007000600020182
:10123C000A000100040025000B0001000500250038
:10124C000C000100060025000D0001000700250020
:10125C000E000800010005010F0008000000050148
:10126C00100007000100020111000700000002013C
:10127C001200030003002B001300030002002B00DC
:10128C001400030001002B001500030000002B00CC
:10129C0016000000000022001700000001002200D0
:1012AC0018000000020022001900000003002200B8
:1012BC001A000000040022001B00000005002200A0
:1012CC001C000000060022001D0000000700220088
:1012DC001E000200070028001F0002000600280064
:1012EC002000020005002800210002000400280054
:1012FC002200020003002800230002000200280044
:10130C002400020001002800250002000000280033
:10131C002600030007002B00270006000200340003
:10132C0028000600010034002900060000003400EB
:10133C002A000A0007000B012B000A0006000B0113
:10134C002C000A0005000B012D000A0004000B0103
:10135C002E000A0003000B012F000A0002000B01F3
:10136C0030000A0001000B0131000A0000000B01E3
:10137C0032000100030025003300010002002500AB
:10138C00340001000100250035000100000025009B
:10139C003600050000003100370005000100310067
:1013AC00380005000200310039000500030031004F
:1013BC003A000500040031003B0005000500310037
:1013CC003C000500060031003D000500070031001F
:1013DC003E000900000008013F000900010008015F
:1013EC004000090002000801410009000300080147
:1013FC00420009000400080143000900050008012F
:10140C004400090006000801450009000700080116
:10141C0000000000E3010D013A013002AB0149016B
:10142C005D01000000000D000000440000004500BC
:10143C000000460000000000000047000000000013
:10144C0000006E00000035000000000000000400E9
:10145C0001004400000045000000460000000000B0
:10146C00000048000000000000006E000000350085
:10147C000000010001000B00000080000000810052
:10148C000000840000008500000088000000890036
:10149C0000006F00000036000000010001000C008D
:1014AC000100800000008100000084000000850025
:1014BC0000008A0000008B0000006F000000360066
:1014CC000000020000000A000000B0000000B100A3
:1014DC000000B200000000000000B300000000009B
:1014EC00000070000000370000000200000009003E
:1014FC000100B0000000B1000000B20000000000CC
:10150C000000B40000000000000070000000370074
:10151C000000030001000500000090000000910095
:10152C000000940000009500000098000000990055
:10153C0000007100000038000000030001000200F0
:10154C000100900000009100000094000000950044
:10155C0000009A0000009B000000710000003800A1
:10156C000000030001000300020090000000910045
:10157C00000094000000950000009C0000009D00FD
:10158C00000071000000380000000400010006009B
:10159C000000A0000000A1000000A4000000A500B5
:1015AC000000A8000000A900000072000000390033
:1015BC0000000400010007000100A0000000A100D1
:1015CC000000A4000000A5000000AA000000AB0071
:1015DC000000720000003900000004000100080047
:1015EC000200A0000000A1000000A4000000A50063
:1015FC000000AC000000AD000000720000003900DB
:10160C000000050001002C00000020010000210159
:10161C000000240100002501000028010000290120
:10162C000000730000003A000000050001002D00CE
:10163C00010020010000210100002401000025010F
:10164C0000002A0100002B010000730000003A008A
:10165C000000050001002E00020020010000210105
:10166C00000024010000250100002C0100002D01C8
:0E167C000000730000003A0000000D0A00009C
:00000001FF
